:100000000C9434000C9451000C9451000C94510049
:100010000C9451000C9451000C9451000C9451001C
:100020000C9451000C9451000C9451000C9451000C
:100030000C9451000C94E2000C9451000C9451006B
:100040000C9451000C9451000C9451000C945100EC
:100050000C9451000C9451000C9451000C945100DC
:100060000C9451000C94510011241FBECFEFD8E026
:10007000DEBFCDBF11E0A0E0B1E0E2E7F3E002C0F7
:1000800005900D92AC3CB107D9F711E0ACECB1E0B2
:1000900001C01D92AF3CB107E1F70E94FF000C9434
:1000A000B7010C940000DF93CF9300D0CDB7DEB73B
:1000B0009A838983E4ECF0E089818083E5ECF0E0C9
:1000C00089819A81892F99278083E2ECF0E086E488
:1000D0008083E1ECF0E088ED80830F900F90CF916A
:1000E000DF910895DF93CF93CDB7DEB7E0ECF0E07A
:1000F00080818823DCF7E6ECF0E08081CF91DF910E
:100100000895DF93CF930F92CDB7DEB78983E0ECEC
:10011000F0E08081882F90E0807290700097B9F3B2
:10012000E6ECF0E0898180830F90CF91DF91089514
:10013000DF93CF9300D00F92CDB7DEB79B838A8336
:1001400019820EC08981282F30E08A819B81FC01B1
:10015000E20FF31F80810E94810089818F5F898374
:100160008981282F30E08A819B81FC01E20FF31FF7
:100170008081882339F70F900F900F90CF91DF91F6
:100180000895DF93CF9300D0CDB7DEB7A1E8B0E0FC
:10019000E1E8F0E0808181608C93AFE6B0E0EFE6CB
:1001A000F0E0808181608C93E4E8F0E011821082BD
:1001B0001092CE011092CD0178948091CD01909152
:1001C000CE01FBCF1F920F920FB60F9211248F9387
:1001D0009F93DF93CF93CDB7DEB78091CD01909100
:1001E000CE0101969093CE018093CD01CF91DF9106
:1001F0009F918F910F900FBE0F901F901895DF93D6
:10020000CF93CDB7DEB780E895E20E945300A4E219
:10021000B0E0E4E2F0E080818F618C93AAE2B0E08C
:10022000EAE2F0E080818F778C93AAE2B0E0EAE224
:10023000F0E080818F7B8C93ABE2B0E0EBE2F0E00A
:10024000808180648C9380E895E20E9453000E9434
:1002500072008093CC018091CC01813361F4A5E2DE
:10026000B0E0E5E2F0E0808182608C9380E091E094
:100270000E949800E8CF8091CC01823361F4A5E21E
:10028000B0E0E5E2F0E080818D7F8C938EE091E03C
:100290000E949800D8CF8091CC01833361F4A5E20D
:1002A000B0E0E5E2F0E0808184608C938DE191E044
:1002B0000E949800C8CF8091CC01843361F4A5E2FC
:1002C000B0E0E5E2F0E080818B7F8C938BE291E0FF
:1002D0000E949800B8CF8091CC01883471F4A5E2D7
:1002E000B0E0E5E2F0E0808188608C938AE391E001
:1002F0000E9498000E94C100A6CFE9E2F0E0808150
:10030000882F90E080749070009761F4A5E2B0E0CF
:10031000E5E2F0E080818F7E8C9380E791E00E949F
:10032000980091CF8091CC018D34E1F4E9E2F0E0C6
:100330008081882F90E080749070009799F0A5E2FA
:10034000B0E0E5E2F0E0808180618C93A5E2B0E06E
:10035000E5E2F0E0808181608C938EE791E00E947D
:10036000980071CF86EB91E00E9498006CCFF894D2
:02037000FFCFBD
:100372004C6967687431206973206F6E0A004C699A
:1003820067687431206973206F66660A004C69677A
:10039200687432206973206F6E0A004C6967687452
:1003A20032206973206F66660A004865617465725F
:1003B200206973206F6E20616E642077696C6C20F7
:1003C2006175746F6D61746963616C6C79206F66BD
:1003D200662061667465722031356D696E730A003C
:1003E2004D6F746F72206973206F66660A004D6FDD
:1003F200746F72206973206F6E20616E6420617564
:10040200746F6D61746963616C6C6C79206F666680
:10041200206166746572206C6576656C2072656118
:10042200636865640A00496E76616C696420696E6E
:0C043200737472756374696F6E0A0000C9
:00000001FF
